{
  "address": "0xcA21ccee24FBfd2192F93fc3B4e988407D1454dF",
  "abi": [
    {
      "anonymous": false,
      "inputs": [
        {
          "indexed": true,
          "internalType": "address",
          "name": "user",
          "type": "address"
        },
        {
          "indexed": false,
          "internalType": "uint256",
          "name": "amount",
          "type": "uint256"
        }
      ],
      "name": "Claim",
      "type": "event"
    },
    {
      "anonymous": false,
      "inputs": [
        {
          "indexed": true,
          "internalType": "address",
          "name": "user",
          "type": "address"
        },
        {
          "indexed": false,
          "internalType": "uint256",
          "name": "amount",
          "type": "uint256"
        },
        {
          "indexed": true,
          "internalType": "address",
          "name": "to",
          "type": "address"
        }
      ],
      "name": "Deposit",
      "type": "event"
    },
    {
      "anonymous": false,
      "inputs": [
        {
          "indexed": true,
          "internalType": "address",
          "name": "user",
          "type": "address"
        },
        {
          "indexed": false,
          "internalType": "uint256",
          "name": "amount",
          "type": "uint256"
        },
        {
          "indexed": true,
          "internalType": "address",
          "name": "to",
          "type": "address"
        }
      ],
      "name": "EmergencyWithdraw",
      "type": "event"
    },
    {
      "anonymous": false,
      "inputs": [
        {
          "indexed": true,
          "internalType": "address",
          "name": "wallet",
          "type": "address"
        }
      ],
      "name": "LogRewardTreasury",
      "type": "event"
    },
    {
      "anonymous": false,
      "inputs": [
        {
          "indexed": true,
          "internalType": "address",
          "name": "user",
          "type": "address"
        },
        {
          "indexed": false,
          "internalType": "uint256",
          "name": "lastRewardTime",
          "type": "uint256"
        },
        {
          "indexed": false,
          "internalType": "uint256",
          "name": "amount",
          "type": "uint256"
        },
        {
          "indexed": false,
          "internalType": "uint256",
          "name": "accRewardPerShare",
          "type": "uint256"
        }
      ],
      "name": "LogUpdate",
      "type": "event"
    },
    {
      "anonymous": false,
      "inputs": [
        {
          "indexed": true,
          "internalType": "address",
          "name": "previousOwner",
          "type": "address"
        },
        {
          "indexed": true,
          "internalType": "address",
          "name": "newOwner",
          "type": "address"
        }
      ],
      "name": "OwnershipTransferred",
      "type": "event"
    },
    {
      "anonymous": false,
      "inputs": [
        {
          "indexed": false,
          "internalType": "address",
          "name": "account",
          "type": "address"
        }
      ],
      "name": "Paused",
      "type": "event"
    },
    {
      "anonymous": false,
      "inputs": [
        {
          "indexed": false,
          "internalType": "address",
          "name": "account",
          "type": "address"
        }
      ],
      "name": "Unpaused",
      "type": "event"
    },
    {
      "anonymous": false,
      "inputs": [
        {
          "indexed": true,
          "internalType": "address",
          "name": "user",
          "type": "address"
        },
        {
          "indexed": false,
          "internalType": "uint256",
          "name": "amount",
          "type": "uint256"
        },
        {
          "indexed": true,
          "internalType": "address",
          "name": "to",
          "type": "address"
        }
      ],
      "name": "Withdraw",
      "type": "event"
    },
    {
      "inputs": [],
      "name": "APY_ACCURACY",
      "outputs": [
        {
          "internalType": "uint256",
          "name": "",
          "type": "uint256"
        }
      ],
      "stateMutability": "view",
      "type": "function"
    },
    {
      "inputs": [],
      "name": "availableReward",
      "outputs": [
        {
          "internalType": "uint256",
          "name": "rewardInTreasury",
          "type": "uint256"
        },
        {
          "internalType": "uint256",
          "name": "rewardAllowedForThisPool",
          "type": "uint256"
        }
      ],
      "stateMutability": "view",
      "type": "function"
    },
    {
      "inputs": [],
      "name": "baseAPY",
      "outputs": [
        {
          "internalType": "uint256",
          "name": "",
          "type": "uint256"
        }
      ],
      "stateMutability": "view",
      "type": "function"
    },
    {
      "inputs": [
        {
          "internalType": "address",
          "name": "to",
          "type": "address"
        }
      ],
      "name": "claim",
      "outputs": [],
      "stateMutability": "nonpayable",
      "type": "function"
    },
    {
      "inputs": [
        {
          "internalType": "uint256",
          "name": "amount",
          "type": "uint256"
        },
        {
          "internalType": "address",
          "name": "to",
          "type": "address"
        }
      ],
      "name": "deposit",
      "outputs": [],
      "stateMutability": "nonpayable",
      "type": "function"
    },
    {
      "inputs": [
        {
          "internalType": "address",
          "name": "to",
          "type": "address"
        }
      ],
      "name": "emergencyWithdraw",
      "outputs": [],
      "stateMutability": "nonpayable",
      "type": "function"
    },
    {
      "inputs": [],
      "name": "feeCollector",
      "outputs": [
        {
          "internalType": "address",
          "name": "",
          "type": "address"
        }
      ],
      "stateMutability": "view",
      "type": "function"
    },
    {
      "inputs": [],
      "name": "feeRate",
      "outputs": [
        {
          "internalType": "uint256",
          "name": "",
          "type": "uint256"
        }
      ],
      "stateMutability": "view",
      "type": "function"
    },
    {
      "inputs": [
        {
          "internalType": "contract IERC20Upgradeable",
          "name": "_rewardToken",
          "type": "address"
        },
        {
          "internalType": "contract IERC20Upgradeable",
          "name": "_lpToken",
          "type": "address"
        },
        {
          "internalType": "address",
          "name": "_rewardTreasury",
          "type": "address"
        },
        {
          "internalType": "address",
          "name": "_feeCollector",
          "type": "address"
        },
        {
          "internalType": "uint256",
          "name": "_baseAPY",
          "type": "uint256"
        }
      ],
      "name": "initialize",
      "outputs": [],
      "stateMutability": "nonpayable",
      "type": "function"
    },
    {
      "inputs": [],
      "name": "lpToken",
      "outputs": [
        {
          "internalType": "contract IERC20Upgradeable",
          "name": "",
          "type": "address"
        }
      ],
      "stateMutability": "view",
      "type": "function"
    },
    {
      "inputs": [],
      "name": "owner",
      "outputs": [
        {
          "internalType": "address",
          "name": "",
          "type": "address"
        }
      ],
      "stateMutability": "view",
      "type": "function"
    },
    {
      "inputs": [],
      "name": "paused",
      "outputs": [
        {
          "internalType": "bool",
          "name": "",
          "type": "bool"
        }
      ],
      "stateMutability": "view",
      "type": "function"
    },
    {
      "inputs": [
        {
          "internalType": "address",
          "name": "_user",
          "type": "address"
        }
      ],
      "name": "pendingReward",
      "outputs": [
        {
          "internalType": "uint256",
          "name": "pending",
          "type": "uint256"
        }
      ],
      "stateMutability": "view",
      "type": "function"
    },
    {
      "inputs": [],
      "name": "renounceOwnership",
      "outputs": [],
      "stateMutability": "nonpayable",
      "type": "function"
    },
    {
      "inputs": [
        {
          "internalType": "address",
          "name": "_user",
          "type": "address"
        }
      ],
      "name": "rewardAPY",
      "outputs": [
        {
          "internalType": "uint256",
          "name": "",
          "type": "uint256"
        }
      ],
      "stateMutability": "view",
      "type": "function"
    },
    {
      "inputs": [],
      "name": "rewardToken",
      "outputs": [
        {
          "internalType": "contract IERC20Upgradeable",
          "name": "",
          "type": "address"
        }
      ],
      "stateMutability": "view",
      "type": "function"
    },
    {
      "inputs": [],
      "name": "rewardTreasury",
      "outputs": [
        {
          "internalType": "address",
          "name": "",
          "type": "address"
        }
      ],
      "stateMutability": "view",
      "type": "function"
    },
    {
      "inputs": [
        {
          "internalType": "uint256",
          "name": "_baseAPY",
          "type": "uint256"
        }
      ],
      "name": "setBaseAPY",
      "outputs": [],
      "stateMutability": "nonpayable",
      "type": "function"
    },
    {
      "inputs": [
        {
          "internalType": "address",
          "name": "_feeCollector",
          "type": "address"
        }
      ],
      "name": "setFeeCollector",
      "outputs": [],
      "stateMutability": "nonpayable",
      "type": "function"
    },
    {
      "inputs": [
        {
          "internalType": "uint256",
          "name": "_feeRate",
          "type": "uint256"
        }
      ],
      "name": "setFeeRate",
      "outputs": [],
      "stateMutability": "nonpayable",
      "type": "function"
    },
    {
      "inputs": [
        {
          "internalType": "address",
          "name": "_wallet",
          "type": "address"
        }
      ],
      "name": "setRewardTreasury",
      "outputs": [],
      "stateMutability": "nonpayable",
      "type": "function"
    },
    {
      "inputs": [
        {
          "internalType": "address",
          "name": "newOwner",
          "type": "address"
        }
      ],
      "name": "transferOwnership",
      "outputs": [],
      "stateMutability": "nonpayable",
      "type": "function"
    },
    {
      "inputs": [
        {
          "internalType": "address",
          "name": "_user",
          "type": "address"
        }
      ],
      "name": "update",
      "outputs": [],
      "stateMutability": "nonpayable",
      "type": "function"
    },
    {
      "inputs": [
        {
          "internalType": "address",
          "name": "",
          "type": "address"
        }
      ],
      "name": "userInfo",
      "outputs": [
        {
          "internalType": "uint256",
          "name": "amount",
          "type": "uint256"
        },
        {
          "internalType": "int256",
          "name": "rewardDebt",
          "type": "int256"
        },
        {
          "internalType": "uint256",
          "name": "lastDepositedAt",
          "type": "uint256"
        },
        {
          "internalType": "uint256",
          "name": "accRewardPerShare",
          "type": "uint256"
        },
        {
          "internalType": "uint256",
          "name": "lastRewardTime",
          "type": "uint256"
        }
      ],
      "stateMutability": "view",
      "type": "function"
    },
    {
      "inputs": [
        {
          "internalType": "uint256",
          "name": "amount",
          "type": "uint256"
        },
        {
          "internalType": "address",
          "name": "to",
          "type": "address"
        }
      ],
      "name": "withdraw",
      "outputs": [],
      "stateMutability": "nonpayable",
      "type": "function"
    }
  ],
  "transactionHash": "0x1e499c730ecc5ee314580a872f9fbdd6a8451817591989bcf426b7bec981d89e",
  "args": [],
  "solcInputHash": "8f7fc62e39881d9feff3fbbdd4396675",
  "bytecode": "0x608060405234801561001057600080fd5b5061198f806100206000396000f3fe608060405234801561001057600080fd5b50600436106101725760003560e01c80636ff1c9bc116100de578063a493415f11610097578063f2fde38b11610071578063f2fde38b14610367578063f40f0f521461037a578063f7013ef61461038d578063f7c618c1146103a057610172565b8063a493415f1461032e578063c415b95c14610341578063c7c934a11461035457610172565b80636ff1c9bc146102d3578063715018a6146102e6578063763c494b146102ee5780638da5cb5b14610301578063978bbdb914610312578063a42dce801461031b57610172565b80634ad84b34116101305780634ad84b341461024657806354709764146102635780635c975abb1461026c5780635ee6efd0146102825780635fcbd285146102955780636e553f65146102c057610172565b8062f714ce146101775780631959a0021461018c5780631c1b8772146101f65780631e83409a14610209578063214405a91461021c57806345596e2e14610233575b600080fd5b61018a6101853660046116b5565b6103b3565b005b6101c961019a3660046115e6565b60cf60205260009081526040902080546001820154600283015460038401546004909401549293919290919085565b604080519586526020860194909452928401919091526060830152608082015260a0015b60405180910390f35b61018a6102043660046115e6565b6105e3565b61018a6102173660046115e6565b6106fc565b61022560ce5481565b6040519081526020016101ed565b61018a610241366004611685565b61080e565b61024e61083d565b604080519283526020830191909152016101ed565b61022561271081565b60655460ff1660405190151581526020016101ed565b61018a610290366004611685565b61094d565b60ca546102a8906001600160a01b031681565b6040516001600160a01b0390911681526020016101ed565b61018a6102ce3660046116b5565b61097c565b61018a6102e13660046115e6565b610ae1565b61018a610bd1565b6102256102fc3660046115e6565b610bfb565b6097546001600160a01b03166102a8565b61022560cd5481565b61018a6103293660046115e6565b610c2c565b61018a61033c3660046115e6565b610c78565b60cc546102a8906001600160a01b031681565b60cb546102a8906001600160a01b031681565b61018a6103753660046115e6565b610cec565b6102256103883660046115e6565b610d87565b61018a61039b366004611622565b610eb1565b60c9546102a8906001600160a01b031681565b600260015414156103df5760405162461bcd60e51b81526004016103d6906117dd565b60405180910390fd5b600260015560655460ff16156104075760405162461bcd60e51b81526004016103d690611733565b610410816105e3565b33600090815260cf6020526040902080548311156104595760405162461bcd60e51b81526020600482015260066024820152651c995d995c9d60d21b60448201526064016103d6565b6003810154815460009164e8d4a510009161047391610fdb565b61047d919061186d565b905060006104a061049b846001015484610fee90919063ffffffff16565b610ffa565b90506104d364e8d4a510006104c2856003015488610fdb90919063ffffffff16565b6104cc919061186d565b8390610fee565b600184015582546104e49086611050565b835560cb5460c954610504916001600160a01b039182169116868461105c565b600061271060cd5487610517919061188d565b610521919061186d565b60cc5460ca54919250610541916001600160a01b039081169116836110cd565b6105628561054f83896118eb565b60ca546001600160a01b031691906110cd565b6040518681526001600160a01b0386169033907f56c54ba9bd38d8fd62012e42c7ee564519b09763c426d331b3661b537ead19b29060200160405180910390a360405182815233907f47cee97cb7acd717b3c0aa1435d004cd5b3c8c57d70dbceb4e4458bbd60e39d49060200160405180910390a250506001805550505050565b6001600160a01b038116600090815260cf602052604081209061060583610bfb565b905081600401544211156106f75781541561069c57600061063383600401544261105090919063ffffffff16565b905060006106756301e1338061066f61271061066f8761066964e8d4a510006106698a8d60000154610fdb90919063ffffffff16565b90610fdb565b906110fd565b8454909150610694906106899083906110fd565b600386015490611109565b600385015550505b426004830181905582546003840154604080519384526020840192909252908201526001600160a01b038416907f029af3fb3c244c9fb9fd3c42dbd1e98392f2f98d6b6fb32304ad04382d4a5e809060600160405180910390a25b505050565b6002600154141561071f5760405162461bcd60e51b81526004016103d6906117dd565b600260015560655460ff16156107475760405162461bcd60e51b81526004016103d690611733565b610750816105e3565b33600090815260cf602052604081206003810154815491929164e8d4a510009161077a9190610fdb565b610784919061186d565b905060006107a261049b846001015484610fee90919063ffffffff16565b60018401839055905080156107cf5760cb5460c9546107cf916001600160a01b039182169116868461105c565b60405181815233907f47cee97cb7acd717b3c0aa1435d004cd5b3c8c57d70dbceb4e4458bbd60e39d49060200160405180910390a25050600180555050565b6097546001600160a01b031633146108385760405162461bcd60e51b81526004016103d69061175d565b60cd55565b60c95460cb546040516370a0823160e01b81526001600160a01b039182166004820152600092839216906370a082319060240160206040518083038186803b15801561088857600080fd5b505afa15801561089c573d6000803e3d6000fd5b505050506040513d601f19601f820116820180604052508101906108c0919061169d565b60c95460cb54604051636eb1769f60e11b81526001600160a01b039182166004820152306024820152929450169063dd62ed3e9060440160206040518083038186803b15801561090f57600080fd5b505afa158015610923573d6000803e3d6000fd5b505050506040513d601f19601f82011682018060405250810190610947919061169d565b90509091565b6097546001600160a01b031633146109775760405162461bcd60e51b81526004016103d69061175d565b60ce55565b6002600154141561099f5760405162461bcd60e51b81526004016103d6906117dd565b600260015560655460ff16156109c75760405162461bcd60e51b81526004016103d690611733565b6109d0816105e3565b6001600160a01b038116600090815260cf6020526040812060cd54909190612710906109fc908661188d565b610a06919061186d565b60cc5460ca54919250610a28916001600160a01b03908116913391168461105c565b610a3281856118eb565b4260028401558254909450610a479085611109565b82556003820154610a799064e8d4a5100090610a64908790610fdb565b610a6e919061186d565b600184015490611115565b600183015560ca54610a96906001600160a01b031633308761105c565b6040518481526001600160a01b0384169033907fe31c7b8d08ee7db0afa68782e1028ef92305caeea8626633ad44d413e30f6b2f906020015b60405180910390a35050600180555050565b60026001541415610b045760405162461bcd60e51b81526004016103d6906117dd565b600260015560655460ff1615610b2c5760405162461bcd60e51b81526004016103d690611733565b33600090815260cf6020526040812080548282556001820183905560cd549192909161271090610b5c908461188d565b610b66919061186d565b60cc5460ca54919250610b86916001600160a01b039081169116836110cd565b610b948461054f83856118eb565b6040518281526001600160a01b0385169033907faaeda929aa102e867049528ec7cd2499e3a2f8846e736ae7935f234dfbf500d990602001610acf565b6097546001600160a01b031633146101725760405162461bcd60e51b81526004016103d69061175d565b600080610c0783611121565b9050610c23606461066f8360ce54610fdb90919063ffffffff16565b9150505b919050565b6097546001600160a01b03163314610c565760405162461bcd60e51b81526004016103d69061175d565b60cc80546001600160a01b0319166001600160a01b0392909216919091179055565b6097546001600160a01b03163314610ca25760405162461bcd60e51b81526004016103d69061175d565b60cb80546001600160a01b0319166001600160a01b0383169081179091556040517ffdd8f4378171881d7612b21a5d9673d49f25072ed487831bb7baf1bdee37bf0290600090a250565b6097546001600160a01b03163314610d165760405162461bcd60e51b81526004016103d69061175d565b6001600160a01b038116610d7b5760405162461bcd60e51b815260206004820152602660248201527f4f776e61626c653a206e6577206f776e657220697320746865207a65726f206160448201526564647265737360d01b60648201526084016103d6565b610d84816111f0565b50565b6001600160a01b038116600090815260cf60209081526040808320815160a08101835281548152600182015493810193909352600281015491830191909152600381015460608301819052600490910154608083015282610de785610bfb565b9050826080015142118015610dfc5750825115155b15610e6f576000610e1a84608001514261105090919063ffffffff16565b90506000610e506301e1338061066f61271061066f8761066964e8d4a510006106698a8e60000151610fdb90919063ffffffff16565b8551909150610e6a90610e63908361186d565b8590611109565b935050505b610ea861049b8460200151610ea2610e9d64e8d4a5100061066f888a60000151610fdb90919063ffffffff16565b611242565b90610fee565b95945050505050565b600054610100900460ff16610ecc5760005460ff1615610ed0565b303b155b610f335760405162461bcd60e51b815260206004820152602e60248201527f496e697469616c697a61626c653a20636f6e747261637420697320616c72656160448201526d191e481a5b9a5d1a585b1a5e995960921b60648201526084016103d6565b600054610100900460ff16158015610f55576000805461ffff19166101011790555b610f5d6112ac565b610f656112d9565b610f6d61130b565b60c980546001600160a01b038089166001600160a01b03199283161790925560ca805488841690831617905560cb805487841690831617905560cc80549286169290911691909117905560ce829055600160cd558015610fd3576000805461ff00191690555b505050505050565b6000610fe7828461188d565b9392505050565b6000610fe782846118ac565b60008082121561104c5760405162461bcd60e51b815260206004820181905260248201527f53616665436173743a2076616c7565206d75737420626520706f73697469766560448201526064016103d6565b5090565b6000610fe782846118eb565b6040516001600160a01b03808516602483015283166044820152606481018290526110c79085906323b872dd60e01b906084015b60408051601f198184030181529190526020810180516001600160e01b03166001600160e01b031990931692909217909152611342565b50505050565b6040516001600160a01b0383166024820152604481018290526106f790849063a9059cbb60e01b90606401611090565b6000610fe7828461186d565b6000610fe78284611855565b6000610fe78284611814565b6001600160a01b038116600090815260cf60209081526040808320815160a0810183528154808252600183015494820194909452600282015492810192909252600381015460608301526004015460808201529069010f0cf064dd592000001115611190576064915050610c27565b805169032d26d12e980b60000011156111ad57607d915050610c27565b80516907695a92c20d6fe0000011156111ca576096915050610c27565b805169152d02c7e14af680000011156111e75760af915050610c27565b5060c892915050565b609780546001600160a01b038381166001600160a01b0319831681179093556040519116919082907f8be0079c531659141344cd1fd0a4f28419497f9722a3daafe3b4186f6b6457e090600090a35050565b60006001600160ff1b0382111561104c5760405162461bcd60e51b815260206004820152602860248201527f53616665436173743a2076616c756520646f65736e27742066697420696e2061604482015267371034b73a191a9b60c11b60648201526084016103d6565b600054610100900460ff166112d35760405162461bcd60e51b81526004016103d690611792565b60018055565b600054610100900460ff166113005760405162461bcd60e51b81526004016103d690611792565b611309336111f0565b565b600054610100900460ff166113325760405162461bcd60e51b81526004016103d690611792565b61133a611414565b61130961143b565b6000611397826040518060400160405280602081526020017f5361666545524332303a206c6f772d6c6576656c2063616c6c206661696c6564815250856001600160a01b031661146e9092919063ffffffff16565b8051909150156106f757808060200190518101906113b59190611602565b6106f75760405162461bcd60e51b815260206004820152602a60248201527f5361666545524332303a204552433230206f7065726174696f6e20646964206e6044820152691bdd081cdd58d8d9595960b21b60648201526084016103d6565b600054610100900460ff166113095760405162461bcd60e51b81526004016103d690611792565b600054610100900460ff166114625760405162461bcd60e51b81526004016103d690611792565b6065805460ff19169055565b606061147d8484600085611485565b949350505050565b6060824710156114e65760405162461bcd60e51b815260206004820152602660248201527f416464726573733a20696e73756666696369656e742062616c616e636520666f6044820152651c8818d85b1b60d21b60648201526084016103d6565b843b6115345760405162461bcd60e51b815260206004820152601d60248201527f416464726573733a2063616c6c20746f206e6f6e2d636f6e747261637400000060448201526064016103d6565b600080866001600160a01b0316858760405161155091906116e4565b60006040518083038185875af1925050503d806000811461158d576040519150601f19603f3d011682016040523d82523d6000602084013e611592565b606091505b50915091506115a28282866115ad565b979650505050505050565b606083156115bc575081610fe7565b8251156115cc5782518084602001fd5b8160405162461bcd60e51b81526004016103d69190611700565b6000602082840312156115f7578081fd5b8135610fe781611944565b600060208284031215611613578081fd5b81518015158114610fe7578182fd5b600080600080600060a08688031215611639578081fd5b853561164481611944565b9450602086013561165481611944565b9350604086013561166481611944565b9250606086013561167481611944565b949793965091946080013592915050565b600060208284031215611696578081fd5b5035919050565b6000602082840312156116ae578081fd5b5051919050565b600080604083850312156116c7578182fd5b8235915060208301356116d981611944565b809150509250929050565b600082516116f6818460208701611902565b9190910192915050565b600060208252825180602084015261171f816040850160208701611902565b601f01601f19169190910160400192915050565b60208082526010908201526f14185d5cd8589b194e881c185d5cd95960821b604082015260600190565b6020808252818101527f4f776e61626c653a2063616c6c6572206973206e6f7420746865206f776e6572604082015260600190565b6020808252602b908201527f496e697469616c697a61626c653a20636f6e7472616374206973206e6f74206960408201526a6e697469616c697a696e6760a81b606082015260800190565b6020808252601f908201527f5265656e7472616e637947756172643a207265656e7472616e742063616c6c00604082015260600190565b600080821280156001600160ff1b03849003851316156118365761183661192e565b600160ff1b839003841281161561184f5761184f61192e565b50500190565b600082198211156118685761186861192e565b500190565b60008261188857634e487b7160e01b81526012600452602481fd5b500490565b60008160001904831182151516156118a7576118a761192e565b500290565b60008083128015600160ff1b8501841216156118ca576118ca61192e565b6001600160ff1b03840183138116156118e5576118e561192e565b50500390565b6000828210156118fd576118fd61192e565b500390565b60005b8381101561191d578181015183820152602001611905565b838111156110c75750506000910152565b634e487b7160e01b600052601160045260246000fd5b6001600160a01b0381168114610d8457600080fdfea26469706673582212204469a1e32fdd9914942b2c1d25ddca75f29526b73f9245f717d4cf8df94fcff264736f6c63430008030033",
  "devdoc": {
    "details": "All function calls are currently implemented without side effects",
    "kind": "dev",
    "methods": {
      "availableReward()": {
        "returns": {
          "rewardAllowedForThisPool": "allowed reward amount to be spent by this pool",
          "rewardInTreasury": "reward amount in treasury"
        }
      },
      "claim(address)": {
        "details": "Here comes the formula to calculate reward token amount",
        "params": {
          "to": "Receiver of rewards."
        }
      },
      "deposit(uint256,address)": {
        "params": {
          "amount": "LP token amount to deposit.",
          "to": "The receiver of `amount` deposit benefit."
        }
      },
      "emergencyWithdraw(address)": {
        "params": {
          "to": "Receiver of the LP tokens."
        }
      },
      "initialize(address,address,address,address,uint256)": {
        "params": {
          "_baseAPY": "The APY of reward to be distributed per second.",
          "_lpToken": "The staking contract address.",
          "_rewardToken": "The reward token contract address.",
          "_rewardTreasury": "The reward treasury contract address."
        }
      },
      "owner()": {
        "details": "Returns the address of the current owner."
      },
      "paused()": {
        "details": "Returns true if the contract is paused, and false otherwise."
      },
      "pendingReward(address)": {
        "details": "It doens't update accRewardPerShare, it's just a view function.",
        "params": {
          "_user": "Address of user."
        },
        "returns": {
          "pending": "reward for a given user."
        }
      },
      "renounceOwnership()": {
        "details": "Leaves the contract without owner. It will not be possible to call `onlyOwner` functions anymore. Can only be called by the current owner. NOTE: Renouncing ownership will leave the contract without an owner, thereby removing any functionality that is only available to the owner."
      },
      "rewardAPY(address)": {
        "returns": {
          "_0": "APY"
        }
      },
      "setBaseAPY(uint256)": {
        "details": "Its decimals count is ACC_REWARD_PRECISION",
        "params": {
          "_baseAPY": "The amount of reward to be distributed per second."
        }
      },
      "setFeeCollector(address)": {
        "params": {
          "_feeCollector": "address that contains the rewards"
        }
      },
      "setFeeRate(uint256)": {
        "params": {
          "_feeRate": "address that contains the rewards"
        }
      },
      "setRewardTreasury(address)": {
        "params": {
          "_wallet": "address that contains the rewards"
        }
      },
      "transferOwnership(address)": {
        "details": "Transfers ownership of the contract to a new account (`newOwner`). Can only be called by the current owner."
      },
      "update(address)": {
        "details": "Updates accRewardPerShare and lastRewardTime."
      },
      "withdraw(uint256,address)": {
        "params": {
          "amount": "LP token amount to withdraw.",
          "to": "Receiver of the LP tokens and rewards."
        }
      }
    },
    "title": "Staking Contract",
    "version": 1
  },
  "userdoc": {
    "kind": "user",
    "methods": {
      "availableReward()": {
        "notice": "return available reward amount"
      },
      "baseAPY()": {
        "notice": "APY"
      },
      "claim(address)": {
        "notice": "Claim rewards and send to `to`."
      },
      "deposit(uint256,address)": {
        "notice": "Deposit LP tokens for reward allocation."
      },
      "emergencyWithdraw(address)": {
        "notice": "Withdraw without caring about rewards. EMERGENCY ONLY."
      },
      "feeCollector()": {
        "notice": "Fee collector"
      },
      "feeRate()": {
        "notice": "Fee rate"
      },
      "lpToken()": {
        "notice": "Address of the LP token."
      },
      "pendingReward(address)": {
        "notice": "View function to see pending reward on frontend."
      },
      "rewardAPY(address)": {
        "notice": "Caclulates the reward apy of the user"
      },
      "rewardToken()": {
        "notice": "Address of reward contract."
      },
      "rewardTreasury()": {
        "notice": "Reward treasury"
      },
      "setBaseAPY(uint256)": {
        "notice": "Sets the reward per second to be distributed. Can only be called by the owner."
      },
      "setFeeCollector(address)": {
        "notice": "set fee collector"
      },
      "setFeeRate(uint256)": {
        "notice": "set rate"
      },
      "setRewardTreasury(address)": {
        "notice": "set reward wallet"
      },
      "update(address)": {
        "notice": "Update reward variables."
      },
      "userInfo(address)": {
        "notice": "Info of each user that stakes LP tokens."
      },
      "withdraw(uint256,address)": {
        "notice": "Withdraw LP tokens and harvest rewards to `to`."
      }
    },
    "notice": "You can use this contract for staking tokens and distribute rewards",
    "version": 1
  },
  "storageLayout": {
    "storage": [
      {
        "astId": 132,
        "contract": "contracts/Staking.sol:Staking",
        "label": "_initialized",
        "offset": 0,
        "slot": "0",
        "type": "t_bool"
      },
      {
        "astId": 135,
        "contract": "contracts/Staking.sol:Staking",
        "label": "_initializing",
        "offset": 1,
        "slot": "0",
        "type": "t_bool"
      },
      {
        "astId": 326,
        "contract": "contracts/Staking.sol:Staking",
        "label": "_status",
        "offset": 0,
        "slot": "1",
        "type": "t_uint256"
      },
      {
        "astId": 369,
        "contract": "contracts/Staking.sol:Staking",
        "label": "__gap",
        "offset": 0,
        "slot": "2",
        "type": "t_array(t_uint256)49_storage"
      },
      {
        "astId": 960,
        "contract": "contracts/Staking.sol:Staking",
        "label": "__gap",
        "offset": 0,
        "slot": "51",
        "type": "t_array(t_uint256)50_storage"
      },
      {
        "astId": 220,
        "contract": "contracts/Staking.sol:Staking",
        "label": "_paused",
        "offset": 0,
        "slot": "101",
        "type": "t_bool"
      },
      {
        "astId": 311,
        "contract": "contracts/Staking.sol:Staking",
        "label": "__gap",
        "offset": 0,
        "slot": "102",
        "type": "t_array(t_uint256)49_storage"
      },
      {
        "astId": 10,
        "contract": "contracts/Staking.sol:Staking",
        "label": "_owner",
        "offset": 0,
        "slot": "151",
        "type": "t_address"
      },
      {
        "astId": 124,
        "contract": "contracts/Staking.sol:Staking",
        "label": "__gap",
        "offset": 0,
        "slot": "152",
        "type": "t_array(t_uint256)49_storage"
      },
      {
        "astId": 1787,
        "contract": "contracts/Staking.sol:Staking",
        "label": "rewardToken",
        "offset": 0,
        "slot": "201",
        "type": "t_contract(IERC20Upgradeable)448"
      },
      {
        "astId": 1791,
        "contract": "contracts/Staking.sol:Staking",
        "label": "lpToken",
        "offset": 0,
        "slot": "202",
        "type": "t_contract(IERC20Upgradeable)448"
      },
      {
        "astId": 1794,
        "contract": "contracts/Staking.sol:Staking",
        "label": "rewardTreasury",
        "offset": 0,
        "slot": "203",
        "type": "t_address"
      },
      {
        "astId": 1797,
        "contract": "contracts/Staking.sol:Staking",
        "label": "feeCollector",
        "offset": 0,
        "slot": "204",
        "type": "t_address"
      },
      {
        "astId": 1800,
        "contract": "contracts/Staking.sol:Staking",
        "label": "feeRate",
        "offset": 0,
        "slot": "205",
        "type": "t_uint256"
      },
      {
        "astId": 1803,
        "contract": "contracts/Staking.sol:Staking",
        "label": "baseAPY",
        "offset": 0,
        "slot": "206",
        "type": "t_uint256"
      },
      {
        "astId": 1809,
        "contract": "contracts/Staking.sol:Staking",
        "label": "userInfo",
        "offset": 0,
        "slot": "207",
        "type": "t_mapping(t_address,t_struct(UserInfo)1777_storage)"
      }
    ],
    "types": {
      "t_address": {
        "encoding": "inplace",
        "label": "address",
        "numberOfBytes": "20"
      },
      "t_array(t_uint256)49_storage": {
        "base": "t_uint256",
        "encoding": "inplace",
        "label": "uint256[49]",
        "numberOfBytes": "1568"
      },
      "t_array(t_uint256)50_storage": {
        "base": "t_uint256",
        "encoding": "inplace",
        "label": "uint256[50]",
        "numberOfBytes": "1600"
      },
      "t_bool": {
        "encoding": "inplace",
        "label": "bool",
        "numberOfBytes": "1"
      },
      "t_contract(IERC20Upgradeable)448": {
        "encoding": "inplace",
        "label": "contract IERC20Upgradeable",
        "numberOfBytes": "20"
      },
      "t_int256": {
        "encoding": "inplace",
        "label": "int256",
        "numberOfBytes": "32"
      },
      "t_mapping(t_address,t_struct(UserInfo)1777_storage)": {
        "encoding": "mapping",
        "key": "t_address",
        "label": "mapping(address => struct Staking.UserInfo)",
        "numberOfBytes": "32",
        "value": "t_struct(UserInfo)1777_storage"
      },
      "t_struct(UserInfo)1777_storage": {
        "encoding": "inplace",
        "label": "struct Staking.UserInfo",
        "members": [
          {
            "astId": 1768,
            "contract": "contracts/Staking.sol:Staking",
            "label": "amount",
            "offset": 0,
            "slot": "0",
            "type": "t_uint256"
          },
          {
            "astId": 1770,
            "contract": "contracts/Staking.sol:Staking",
            "label": "rewardDebt",
            "offset": 0,
            "slot": "1",
            "type": "t_int256"
          },
          {
            "astId": 1772,
            "contract": "contracts/Staking.sol:Staking",
            "label": "lastDepositedAt",
            "offset": 0,
            "slot": "2",
            "type": "t_uint256"
          },
          {
            "astId": 1774,
            "contract": "contracts/Staking.sol:Staking",
            "label": "accRewardPerShare",
            "offset": 0,
            "slot": "3",
            "type": "t_uint256"
          },
          {
            "astId": 1776,
            "contract": "contracts/Staking.sol:Staking",
            "label": "lastRewardTime",
            "offset": 0,
            "slot": "4",
            "type": "t_uint256"
          }
        ],
        "numberOfBytes": "160"
      },
      "t_uint256": {
        "encoding": "inplace",
        "label": "uint256",
        "numberOfBytes": "32"
      }
    }
  }
}